{
  "contractName": "EGRN",
  "abi": [
    {
      "inputs": [],
      "stateMutability": "nonpayable",
      "type": "constructor"
    },
    {
      "inputs": [],
      "name": "owner",
      "outputs": [
        {
          "internalType": "address",
          "name": "",
          "type": "address"
        }
      ],
      "stateMutability": "view",
      "type": "function",
      "constant": true
    },
    {
      "inputs": [
        {
          "internalType": "string",
          "name": "objectId",
          "type": "string"
        },
        {
          "internalType": "string",
          "name": "egrnRecordId",
          "type": "string"
        },
        {
          "internalType": "string",
          "name": "egrnRecord",
          "type": "string"
        }
      ],
      "name": "addNewObject",
      "outputs": [
        {
          "internalType": "bytes32",
          "name": "recordHash",
          "type": "bytes32"
        }
      ],
      "stateMutability": "nonpayable",
      "type": "function"
    },
    {
      "inputs": [
        {
          "internalType": "string",
          "name": "objectId",
          "type": "string"
        },
        {
          "internalType": "string",
          "name": "egrnRecordId",
          "type": "string"
        },
        {
          "internalType": "string",
          "name": "egrnRecord",
          "type": "string"
        }
      ],
      "name": "addNewRecord",
      "outputs": [
        {
          "internalType": "bytes32",
          "name": "recordHash",
          "type": "bytes32"
        }
      ],
      "stateMutability": "nonpayable",
      "type": "function"
    },
    {
      "inputs": [
        {
          "internalType": "string",
          "name": "objectId",
          "type": "string"
        },
        {
          "internalType": "string",
          "name": "egrnRecordId",
          "type": "string"
        },
        {
          "internalType": "string",
          "name": "egrnRecord",
          "type": "string"
        }
      ],
      "name": "checkRecordIdentity",
      "outputs": [
        {
          "internalType": "bool",
          "name": "identity",
          "type": "bool"
        }
      ],
      "stateMutability": "view",
      "type": "function",
      "constant": true
    }
  ],
  "bytecode": "0x608060405234801561001057600080fd5b50336000806101000a81548173ffffffffffffffffffffffffffffffffffffffff021916908373ffffffffffffffffffffffffffffffffffffffff160217905550610ac8806100606000396000f3fe608060405234801561001057600080fd5b506004361061004c5760003560e01c8063658fd95f14610051578063761c7c24146100815780638da5cb5b146100b1578063b936bb2b146100cf575b600080fd5b61006b6004803603810190610066919061055f565b6100ff565b60405161007891906108b6565b60405180910390f35b61009b6004803603810190610096919061055f565b61024b565b6040516100a891906108b6565b60405180910390f35b6100b961038d565b6040516100c69190610880565b60405180910390f35b6100e960048036038101906100e4919061055f565b6103b1565b6040516100f6919061089b565b60405180910390f35b60008060009054906101000a900473ffffffffffffffffffffffffffffffffffffffff1673ffffffffffffffffffffffffffffffffffffffff163373ffffffffffffffffffffffffffffffffffffffff1614610190576040517f08c379a000000000000000000000000000000000000000000000000000000000815260040161018790610931565b60405180910390fd5b600061019b856103ec565b905080156101de576040517f08c379a00000000000000000000000000000000000000000000000000000000081526004016101d5906108f1565b60405180910390fd5b60006101e985610421565b9050801561022c576040517f08c379a000000000000000000000000000000000000000000000000000000000815260040161022390610911565b60405180910390fd5b6102358661044f565b610240868686610488565b925050509392505050565b60008060009054906101000a900473ffffffffffffffffffffffffffffffffffffffff1673ffffffffffffffffffffffffffffffffffffffff163373ffffffffffffffffffffffffffffffffffffffff16146102dc576040517f08c379a00000000000000000000000000000000000000000000000000000000081526004016102d390610931565b60405180910390fd5b60006102e7856103ec565b905080610329576040517f08c379a0000000000000000000000000000000000000000000000000000000008152600401610320906108d1565b60405180910390fd5b600061033485610421565b90508015610377576040517f08c379a000000000000000000000000000000000000000000000000000000000815260040161036e90610911565b60405180910390fd5b610382868686610488565b925050509392505050565b60008054906101000a900473ffffffffffffffffffffffffffffffffffffffff1681565b6000806103bf8585856104c1565b90506002846040516103d19190610838565b90815260200160405180910390205481149150509392505050565b60006001826040516103fe9190610838565b908152602001604051809103902060009054906101000a900460ff169050919050565b60008060001b6002836040516104379190610838565b90815260200160405180910390205414159050919050565b600180826040516104609190610838565b908152602001604051809103902060006101000a81548160ff02191690831515021790555050565b60006104958484846104c1565b9050806002846040516104a89190610838565b9081526020016040518091039020819055509392505050565b60008383836040516020016104d89392919061084f565b6040516020818303038152906040528051906020012090509392505050565b600061050a61050584610982565b610951565b90508281526020810184848401111561052257600080fd5b61052d848285610a21565b509392505050565b600082601f83011261054657600080fd5b81356105568482602086016104f7565b91505092915050565b60008060006060848603121561057457600080fd5b600084013567ffffffffffffffff81111561058e57600080fd5b61059a86828701610535565b935050602084013567ffffffffffffffff8111156105b757600080fd5b6105c386828701610535565b925050604084013567ffffffffffffffff8111156105e057600080fd5b6105ec86828701610535565b9150509250925092565b6105ff816109d9565b82525050565b61060e816109eb565b82525050565b61061d816109f7565b82525050565b600061062e826109b2565b61063881856109ce565b9350610648818560208601610a30565b80840191505092915050565b60006106616055836109bd565b91507fd09ed0b1d18ad0b5d0bad182d0b020d18120d182d0b0d0bad0b8d0bc20d0b8d060008301527fb4d0b5d0bdd182d0b8d184d0b8d0bad0b0d182d0bed180d0bed0bc20d0bdd0b560208301527f20d181d183d189d0b5d181d182d0b2d183d0b5d18200000000000000000000006040830152606082019050919050565b60006106ed6055836109bd565b91507fd09ed0b1d18ad0b5d0bad18220d18120d182d0b0d0bad0b8d0bc20d0b8d0b4d060008301527fb5d0bdd182d0b8d184d0b8d0bad0b0d182d0bed180d0bed0bc20d183d0b6d0b560208301527f20d181d183d189d0b5d181d182d0b2d183d0b5d18200000000000000000000006040830152606082019050919050565b60006107796055836109bd565b91507fd097d0b0d0bfd0b8d181d18c20d18120d182d0b0d0bad0b8d0bc20d0b8d0b4d060008301527fb5d0bdd182d0b8d184d0b8d0bad0b0d182d0bed180d0bed0bc20d183d0b6d0b560208301527f20d181d183d189d0b5d181d182d0b2d183d0b5d18200000000000000000000006040830152606082019050919050565b6000610805600e836109bd565b91507f4e4f5420415554484f52495a45440000000000000000000000000000000000006000830152602082019050919050565b60006108448284610623565b915081905092915050565b600061085b8286610623565b91506108678285610623565b91506108738284610623565b9150819050949350505050565b600060208201905061089560008301846105f6565b92915050565b60006020820190506108b06000830184610605565b92915050565b60006020820190506108cb6000830184610614565b92915050565b600060208201905081810360008301526108ea81610654565b9050919050565b6000602082019050818103600083015261090a816106e0565b9050919050565b6000602082019050818103600083015261092a8161076c565b9050919050565b6000602082019050818103600083015261094a816107f8565b9050919050565b6000604051905081810181811067ffffffffffffffff8211171561097857610977610a63565b5b8060405250919050565b600067ffffffffffffffff82111561099d5761099c610a63565b5b601f19601f8301169050602081019050919050565b600081519050919050565b600082825260208201905092915050565b600081905092915050565b60006109e482610a01565b9050919050565b60008115159050919050565b6000819050919050565b600073ffffffffffffffffffffffffffffffffffffffff82169050919050565b82818337600083830152505050565b60005b83811015610a4e578082015181840152602081019050610a33565b83811115610a5d576000848401525b50505050565b7f4e487b7100000000000000000000000000000000000000000000000000000000600052604160045260246000fdfea26469706673582212201cb9b2e9f6015e7cecda547865243faf1d69a6e79d121313f31c3c980b0ed16064736f6c63430008000033",
  "immutableReferences": {},
  "source": "// SPDX-License-Identifier: MIT\r\npragma solidity ^0.8.0;\r\n\r\n\r\ncontract EGRN {\r\n    address public owner;\r\n    mapping (string => bool) objects;\r\n    mapping (string => bytes32) records;\r\n\r\n    constructor() {\r\n        owner = msg.sender;\r\n    }\r\n    \r\n    modifier onlyOwner() {\r\n        require(msg.sender == owner, \"NOT AUTHORIZED\");\r\n        _;\r\n    }\r\n\r\n    function getEgrnRecordHash(\r\n        string memory objectId,\r\n        string memory egrnRecordId,\r\n        string memory egrnRecord\r\n    ) private pure returns (bytes32 hash) {\r\n        hash = keccak256(\r\n            abi.encodePacked(\r\n                objectId, \r\n                egrnRecordId, \r\n                egrnRecord));\r\n    }\r\n\r\n    function createNewObject(\r\n        string memory objectId\r\n    ) private {\r\n        objects[objectId] = true;\r\n    }\r\n\r\n    function createNewRecord(\r\n        string memory objectId,\r\n        string memory egrnRecordId,\r\n        string memory egrnRecord\r\n    ) private returns (bytes32 recordHash) {\r\n        recordHash = getEgrnRecordHash(objectId, egrnRecordId, egrnRecord);\r\n        records[egrnRecordId] = recordHash;\r\n    }\r\n\r\n    function addNewObject(\r\n        string memory objectId, \r\n        string memory egrnRecordId,\r\n        string memory egrnRecord\r\n    ) public onlyOwner() returns(bytes32 recordHash) {\r\n        bool objectExists = checkObjectExistance(objectId);\r\n        if (objectExists) revert(unicode'     ');\r\n        bool recordExists = checkRecordExistance(egrnRecordId);\r\n        if (recordExists) revert(unicode'     ');\r\n        createNewObject(objectId);\r\n        recordHash = createNewRecord(objectId, egrnRecordId, egrnRecord); \r\n    }\r\n\r\n    function addNewRecord(\r\n        string memory objectId, \r\n        string memory egrnRecordId,\r\n        string memory egrnRecord\r\n    ) public onlyOwner() returns (bytes32 recordHash) {\r\n        bool objectExists = checkObjectExistance(objectId);\r\n        if (!objectExists) revert(unicode'     ');\r\n        bool recordExists = checkRecordExistance(egrnRecordId);\r\n        if (recordExists) revert(unicode'     ');\r\n        recordHash = createNewRecord(objectId, egrnRecordId, egrnRecord); \r\n    }\r\n\r\n    function checkObjectExistance(\r\n        string memory objectId\r\n    ) private view returns (bool exists) {\r\n        exists = objects[objectId];\r\n    }\r\n\r\n    function checkRecordExistance(\r\n        string memory egrnRecordId\r\n    ) private view returns (bool exists) {\r\n        //     \r\n        exists = records[egrnRecordId] != 0x0000000000000000000000000000000000000000000000000000000000000000;\r\n    }\r\n\r\n    function checkRecordIdentity(\r\n        string memory objectId,\r\n        string memory egrnRecordId,\r\n        string memory egrnRecord\r\n    ) public view returns (bool identity) {\r\n        bytes32 inputRecordHash = getEgrnRecordHash(objectId, egrnRecordId, egrnRecord);\r\n        identity = inputRecordHash == records[egrnRecordId];\r\n    }\r\n}",
  "sourcePath": "/mnt/c/Users//Documents/Projects/itmo-disser/smart-contract-deployer/contracts/EGRN.sol",
  "compiler": {
    "name": "solc",
    "version": "0.8.0+commit.c7dfd78e.Emscripten.clang"
  },
  "schemaVersion": "3.4.13",
  "updatedAt": "2023-04-14T05:14:45.536Z",
  "networkType": "ethereum",
  "devdoc": {
    "kind": "dev",
    "methods": {},
    "version": 1
  },
  "userdoc": {
    "kind": "user",
    "methods": {},
    "version": 1
  }
}